:020000040000FA
:060000000A128A110C280F
:10000800FE00030EF0000A08F1000A128A11C82C3B
:100018000A128A110F28FB0183120313A001A10100
:10002800A201A301A401A501A601A701A801A90194
:10003800AA01AB01AC01AD0183010A128A11912911
:1000480057293408AF003308AE000230B000003042
:10005800B1003530B7003708B2000A128A110224FD
:100068000A128A1190293408AF003308AE00023012
:10007800B0000030B1003730B7003708B2000A12BC
:100088008A1102240A128A1190293408AF00330811
:10009800AE000230B0000030B1003930B700370888
:1000A800B2000A128A1102240A128A11902934080D
:1000B800AF003308AE000230B0000030B1003B3072
:1000C800B7003708B2000A128A1102240A128A11EC
:1000D80090293408AF003308AE000230B000003079
:1000E800B1003D30B7003708B2000A128A11022465
:1000F8000A128A1190293408AF003308AE00023082
:10010800B0000030B1003F30B7003708B2000A1223
:100118008A1102240A128A1190293408AF00330880
:10012800AE000230B0000030B1004130B7003708EF
:10013800B2000A128A1102240A128A11902934087C
:10014800AF003308AE000230B0000030B1003330E9
:10015800B7003708B2000A128A1102240A128A115B
:1001680090293408AF003308AE000230B0000030E8
:10017800B1004330B7003708B2000A128A110224CE
:100188000A128A1190293408AF003308AE000230F1
:10019800B0000030B1004530B7003708B2000A128D
:1001A8008A1102240A128A1190293408AF003308F0
:1001B800AE000230B0000030B1004730B700370859
:1001C800B2000A128A1102240A128A1190293408EC
:1001D800AF003308AE000230B0000030B100493043
:1001E800B7003708B2000A128A1102240A128A11CB
:1001F80090293408AF003308AE000230B000003058
:10020800B1004B30B7003708B2000A128A11022435
:100218000A128A1190293408AF003308AE00023060
:10022800B0000030B1004D30B7003708B2000A12F4
:100238008A1102240A128A1190293408AF0033085F
:10024800AE000230B0000030B1004F30B7003708C0
:10025800B2000A128A1102240A128A11902934085B
:10026800AF003308AE000230B0000030B1005130AA
:10027800B7003708B2000A128A1102240A128A113A
:1002880090293408AF003308AE000230B0000030C7
:10029800B1003530B7003708B2000A128A110224BB
:1002A8000A128A119029831203133608003A031997
:1002B8005E2945293508003A03192528013A03190A
:1002C8003728033A03194928013A03195B28073AE2
:1002D80003196D28013A03197F28033A0319912855
:1002E800013A0319A3280F3A0319B528013A03194B
:1002F800C728033A0319D928013A0319EB28073A02
:100308000319FD28013A03190F29033A0319212972
:10031800013A03193329452908000A128A112D24A4
:100328000A128A110A128A11D6230A128A110A128B
:100338008A113A250A128A11003083120313AE007B
:10034800AF000130B0000030B1002230B8003808EA
:10035800B2000A128A1102240A128A110530831285
:100368000313AE000030AF000230B0000030B1001F
:100378002F30B8003808B2000A128A1102240A1273
:100388008A11F430F2000130F3000A128A1157245E
:100398000A128A11003083120313AE00AF00013035
:1003A800B0000030B1001230B8003808B2000A12AC
:1003B8008A1102240A128A11003083120313AE0034
:1003C800AF000230B0000030B1000130B80038088A
:1003D800B2000A128A1102240A128A110A128A1118
:1003E80058230A128A110A128A119D230A128A11A5
:1003F800033083120313B3000030B4002908B60099
:100408002808B5000A128A1124200A128A1102301B
:1004180083120313B3000030B4002708B60026087F
:10042800B5000A128A1124200A128A110830831290
:100438000313B3000030B4002508B6002408B50043
:100448000A128A1124200A128A1107308312031310
:10045800B3000030B4002308B6002208B5000A1221
:100468008A1124200A128A11F2290A128A110C28E8
:10047800AD2A831603139F014130831203139F0093
:10048800DE2A831603139F014530831203139F004E
:10049800DE2A831603139F014930831203139F003A
:1004A800DE2A831603139F014D30831203139F0026
:1004B800DE2A831603139F015130831203139F0012
:1004C800DE2A831603139F015530831203139F00FE
:1004D800DE2A831603139F015930831203139F00EA
:1004E800DE2A831603139F015D30831203139F00D6
:1004F800DE2A831603139F016130831203139F00C2
:10050800DE2A831603139F016530831203139F00AD
:10051800DE2A831603139F016930831203139F0099
:10052800DE2A831603139F016D30831203139F0085
:10053800DE2A831603139F017130831203139F0071
:10054800DE2A831603139F017530831203139F005D
:10055800DE2A7308003A0319B22ADE2A7208003A22
:1005680003193D2A013A0319452A033A03194D2A6A
:10057800013A0319552A073A03195D2A013A031962
:10058800652A033A03196D2A013A0319752A0F3AA5
:1005980003197D2A013A0319852A033A03198D2A7A
:1005A800013A0319952A073A03199D2A013A0319B2
:0605B800A52ADE2A08005E
:1006000003308A000408840A82070034203420342E
:10061000203420342034203420342034203420343A
:10062000203420342034203420342034003420344A
:100630004134443443343134203441344434433439
:100640003234203443344F344E34543400344B3439
:100650006134743465342034433461346334653434
:1006600072346F34733400343134383433343034CA
:100670003734003430340034313400343234003410
:1006800033340034343400343534003436340034F8
:1006900038340034393400344134003442340034C6
:1006A0004334003444340034453400344634003498
:1006B000831203132C032D04031D5F2B602B7A2B55
:1006C0001E08F8007808FB000230F2000030F3004A
:1006D0000A128A113C220A128A113230F2000030CA
:1006E000F3000A128A1157240A128A118312031383
:1006F0009F149C2B2C082D04031D7F2B802B9C2BDF
:100700001E08F800F9017808AA007908AB0001304A
:10071000F2000030F3000A128A113C220A128A11F8
:100720003230F2000030F3000A128A1157240A1204
:100730008A11831203139F1408007B080F39F200FB
:10074000F301720883120313A8007308A9007B0841
:10075000F039F200F3017208A6007308A700260E14
:100760000F39A600270EF039A604270E0F39A7006F
:10077000F030A71D0030A7040F302A05A400003078
:100780002B05A500F0302A05A20000302B05A300A0
:10079000220E0F39A200230EF039A204230E0F39C6
:1007A000A300F030A31D0030A30408008316031338
:1007B0000813881386018312031308138813860114
:1007C0003230F2000030F3000A128A1180240A123B
:1007D0008A1102300A128A1111250A128A11383040
:1007E0000A128A1111250A128A110C300A128A1172
:1007F00011250A128A1106300A128A1111250A12CD
:100800008A1108000F2C2E08803EF9007908FA00A2
:100810001E2C2E08C03EF9007908FA001E2C831207
:1008200003133108003A0319162C032C3008013A3F
:100830000319032C033A0319092C032C7A080A1212
:100840008A1111250A128A118312031332080A121F
:100850008A11A9240A128A1108000730831603138B
:10086000850007308316031788000230F20000303D
:10087000F3000A128A113C220A128A113230F20065
:100880000030F3000A128A1157240A128A1101302B
:1008900083120313AC000030AD000B178316031353
:1008A0000C17831203130C138B179F140800F40109
:1008B000F501752CF601F7010130F6070318F70A68
:1008C0000030F7077708803AFF0080307F02031D71
:1008D0006B2CFF307602031C6E2C6F2C5C2C0130CD
:1008E000F4070318F50A0030F50773087502031DB5
:1008F0007B2C72087402031C7E2C7F2C5A2C08005F
:10090000F401F5019E2CF601F7010130F6070318FA
:10091000F70A0030F7077708803AFF0080307F023F
:10092000031D942CFF307602031C972C982C852CE9
:100930000130F4070318F50A0030F5077308750253
:10094000031DA42C72087402031CA72CA82C832C52
:100950000800F800BB2C780884000A128A110023D2
:100960000A128A110A128A11FC240A128A11013011
:10097000F7007708F807780884000A128A11002324
:100980000A128A11003A031DC62CC72CAB2C080092
:10099000831203130C1FCD2CCE2CDC2C2C032D0426
:1009A000031DD32CD42CD72CAC01AD01DB2C013092
:1009B000AC000030AD000C1371088A00700E83008B
:1009C000FE0E7E0E09008312031388170530F20015
:1009D0000030F3000A128A1126250A128A118312A6
:1009E000031388130530F2000030F3000A128A1155
:1009F00026250A128A110800F6008312031308172D
:100A0000760886000A128A11E3240A128A1132300B
:100A1000F2000030F3000A128A1126250A128A1108
:100A20000800F800831203130813780886000A12DE
:100A30008A11E3240A128A110230F2000030F30016
:100A40000A128A1180240A128A110800F401F501A1
:100A50002F2D0130F4070318F50A0030F50773084D
:100A60007502031D352D72087402031C382D392DB3
:100A7000292D080001300A128A1111250A128A1143
:020A800008006C
:04400E00F523FF3F58
:00000001FF
